{
  "contractName": "Codestreet",
  "abi": [
    {
      "inputs": [
        {
          "internalType": "string",
          "name": "title",
          "type": "string"
        },
        {
          "internalType": "string",
          "name": "problemStatement",
          "type": "string"
        }
      ],
      "name": "addProblem",
      "outputs": [],
      "stateMutability": "payable",
      "type": "function"
    },
    {
      "inputs": [
        {
          "internalType": "uint256",
          "name": "problemId",
          "type": "uint256"
        },
        {
          "internalType": "string",
          "name": "solutionStatement",
          "type": "string"
        }
      ],
      "name": "addSolution",
      "outputs": [],
      "stateMutability": "nonpayable",
      "type": "function"
    },
    {
      "inputs": [
        {
          "internalType": "uint256",
          "name": "solutionId",
          "type": "uint256"
        },
        {
          "internalType": "uint256",
          "name": "problemId",
          "type": "uint256"
        }
      ],
      "name": "approveSolution",
      "outputs": [],
      "stateMutability": "nonpayable",
      "type": "function"
    },
    {
      "inputs": [],
      "name": "getProblems",
      "outputs": [
        {
          "components": [
            {
              "internalType": "string",
              "name": "title",
              "type": "string"
            },
            {
              "internalType": "string",
              "name": "problemStatement",
              "type": "string"
            },
            {
              "internalType": "uint256",
              "name": "price",
              "type": "uint256"
            },
            {
              "internalType": "address",
              "name": "askerAddress",
              "type": "address"
            },
            {
              "internalType": "bool",
              "name": "approved",
              "type": "bool"
            }
          ],
          "internalType": "struct Codestreet.Problem[]",
          "name": "",
          "type": "tuple[]"
        }
      ],
      "stateMutability": "view",
      "type": "function"
    },
    {
      "inputs": [],
      "name": "getSolutions",
      "outputs": [
        {
          "components": [
            {
              "internalType": "string",
              "name": "solutionStatement",
              "type": "string"
            },
            {
              "internalType": "address",
              "name": "solverAddress",
              "type": "address"
            },
            {
              "internalType": "uint256",
              "name": "problemId",
              "type": "uint256"
            },
            {
              "internalType": "bool",
              "name": "approved",
              "type": "bool"
            }
          ],
          "internalType": "struct Codestreet.Solution[]",
          "name": "",
          "type": "tuple[]"
        }
      ],
      "stateMutability": "view",
      "type": "function"
    }
  ],
  "bytecode": "0x608060405234801561001057600080fd5b506112e9806100206000396000f3fe60806040526004361061004a5760003560e01c8063367c5adc1461004f57806342d159121461007a5780636940b4f0146100a557806388e36593146100ce578063ae8f77f1146100f7575b600080fd5b34801561005b57600080fd5b50610064610113565b6040516100719190611024565b60405180910390f35b34801561008657600080fd5b5061008f61027f565b60405161009c9190611002565b60405180910390f35b3480156100b157600080fd5b506100cc60048036038101906100c79190610cab565b61047d565b005b3480156100da57600080fd5b506100f560048036038101906100f09190610cff565b61057c565b005b610111600480360381019061010c9190610c3f565b6109fd565b005b60606001805480602002602001604051908101604052809291908181526020016000905b82821015610276578382906000526020600020906004020160405180608001604052908160008201805461016a906111fb565b80601f0160208091040260200160405190810160405280929190818152602001828054610196906111fb565b80156101e35780601f106101b8576101008083540402835291602001916101e3565b820191906000526020600020905b8154815290600101906020018083116101c657829003601f168201915b505050505081526020016001820160009054906101000a900473ffffffffffffffffffffffffffffffffffffffff1673ffffffffffffffffffffffffffffffffffffffff1673ffffffffffffffffffffffffffffffffffffffff168152602001600282015481526020016003820160009054906101000a900460ff16151515158152505081526020019060010190610137565b50505050905090565b60606000805480602002602001604051908101604052809291908181526020016000905b8282101561047457838290600052602060002090600402016040518060a00160405290816000820180546102d6906111fb565b80601f0160208091040260200160405190810160405280929190818152602001828054610302906111fb565b801561034f5780601f106103245761010080835404028352916020019161034f565b820191906000526020600020905b81548152906001019060200180831161033257829003601f168201915b50505050508152602001600182018054610368906111fb565b80601f0160208091040260200160405190810160405280929190818152602001828054610394906111fb565b80156103e15780601f106103b6576101008083540402835291602001916103e1565b820191906000526020600020905b8154815290600101906020018083116103c457829003601f168201915b50505050508152602001600282015481526020016003820160009054906101000a900473ffffffffffffffffffffffffffffffffffffffff1673ffffffffffffffffffffffffffffffffffffffff1673ffffffffffffffffffffffffffffffffffffffff1681526020016003820160149054906101000a900460ff161515151581525050815260200190600101906102a3565b50505050905090565b600060405180608001604052808381526020013373ffffffffffffffffffffffffffffffffffffffff16815260200184815260200160001515815250905060018190806001815401808255809150506001900390600052602060002090600402016000909190919091506000820151816000019080519060200190610503929190610b1f565b5060208201518160010160006101000a81548173ffffffffffffffffffffffffffffffffffffffff021916908373ffffffffffffffffffffffffffffffffffffffff1602179055506040820151816002015560608201518160030160006101000a81548160ff0219169083151502179055505050505050565b60008082815481106105b7577f4e487b7100000000000000000000000000000000000000000000000000000000600052603260045260246000fd5b90600052602060002090600402016040518060a00160405290816000820180546105e0906111fb565b80601f016020809104026020016040519081016040528092919081815260200182805461060c906111fb565b80156106595780601f1061062e57610100808354040283529160200191610659565b820191906000526020600020905b81548152906001019060200180831161063c57829003601f168201915b50505050508152602001600182018054610672906111fb565b80601f016020809104026020016040519081016040528092919081815260200182805461069e906111fb565b80156106eb5780601f106106c0576101008083540402835291602001916106eb565b820191906000526020600020905b8154815290600101906020018083116106ce57829003601f168201915b50505050508152602001600282015481526020016003820160009054906101000a900473ffffffffffffffffffffffffffffffffffffffff1673ffffffffffffffffffffffffffffffffffffffff1673ffffffffffffffffffffffffffffffffffffffff1681526020016003820160149054906101000a900460ff16151515158152505090506000600184815481106107ad577f4e487b7100000000000000000000000000000000000000000000000000000000600052603260045260246000fd5b90600052602060002090600402016040518060800160405290816000820180546107d6906111fb565b80601f0160208091040260200160405190810160405280929190818152602001828054610802906111fb565b801561084f5780601f106108245761010080835404028352916020019161084f565b820191906000526020600020905b81548152906001019060200180831161083257829003601f168201915b505050505081526020016001820160009054906101000a900473ffffffffffffffffffffffffffffffffffffffff1673ffffffffffffffffffffffffffffffffffffffff1673ffffffffffffffffffffffffffffffffffffffff168152602001600282015481526020016003820160009054906101000a900460ff1615151515815250509050816060015173ffffffffffffffffffffffffffffffffffffffff163373ffffffffffffffffffffffffffffffffffffffff161461091157600080fd5b81608001511561092057600080fd5b6000816020015173ffffffffffffffffffffffffffffffffffffffff16836040015160405161094e90610fed565b60006040518083038185875af1925050503d806000811461098b576040519150601f19603f3d011682016040523d82523d6000602084013e610990565b606091505b50509050806109d4576040517f08c379a00000000000000000000000000000000000000000000000000000000081526004016109cb90611046565b60405180910390fd5b600183608001901515908115158152505060018260600190151590811515815250505050505050565b60006040518060a001604052808481526020018381526020013481526020013373ffffffffffffffffffffffffffffffffffffffff16815260200160001515815250905060008190806001815401808255809150506001900390600052602060002090600402016000909190919091506000820151816000019080519060200190610a89929190610b1f565b506020820151816001019080519060200190610aa6929190610b1f565b506040820151816002015560608201518160030160006101000a81548173ffffffffffffffffffffffffffffffffffffffff021916908373ffffffffffffffffffffffffffffffffffffffff16021790555060808201518160030160146101000a81548160ff0219169083151502179055505050505050565b828054610b2b906111fb565b90600052602060002090601f016020900481019282610b4d5760008555610b94565b82601f10610b6657805160ff1916838001178555610b94565b82800160010185558215610b94579182015b82811115610b93578251825591602001919060010190610b78565b5b509050610ba19190610ba5565b5090565b5b80821115610bbe576000816000905550600101610ba6565b5090565b6000610bd5610bd084611097565b611066565b905082815260208101848484011115610bed57600080fd5b610bf88482856111b9565b509392505050565b600082601f830112610c1157600080fd5b8135610c21848260208601610bc2565b91505092915050565b600081359050610c398161129c565b92915050565b60008060408385031215610c5257600080fd5b600083013567ffffffffffffffff811115610c6c57600080fd5b610c7885828601610c00565b925050602083013567ffffffffffffffff811115610c9557600080fd5b610ca185828601610c00565b9150509250929050565b60008060408385031215610cbe57600080fd5b6000610ccc85828601610c2a565b925050602083013567ffffffffffffffff811115610ce957600080fd5b610cf585828601610c00565b9150509250929050565b60008060408385031215610d1257600080fd5b6000610d2085828601610c2a565b9250506020610d3185828601610c2a565b9150509250929050565b6000610d478383610efe565b905092915050565b6000610d5b8383610f7b565b905092915050565b610d6c81611171565b82525050565b6000610d7d826110e7565b610d878185611122565b935083602082028501610d99856110c7565b8060005b85811015610dd55784840389528151610db68582610d3b565b9450610dc183611108565b925060208a01995050600181019050610d9d565b50829750879550505050505092915050565b6000610df2826110f2565b610dfc8185611133565b935083602082028501610e0e856110d7565b8060005b85811015610e4a5784840389528151610e2b8582610d4f565b9450610e3683611115565b925060208a01995050600181019050610e12565b50829750879550505050505092915050565b610e6581611183565b82525050565b6000610e76826110fd565b610e80818561114f565b9350610e908185602086016111c8565b610e998161128b565b840191505092915050565b6000610eb1601483611160565b91507f4661696c656420746f2073656e642065746865720000000000000000000000006000830152602082019050919050565b6000610ef1600083611144565b9150600082019050919050565b600060a0830160008301518482036000860152610f1b8282610e6b565b91505060208301518482036020860152610f358282610e6b565b9150506040830151610f4a6040860182610fde565b506060830151610f5d6060860182610d63565b506080830151610f706080860182610e5c565b508091505092915050565b60006080830160008301518482036000860152610f988282610e6b565b9150506020830151610fad6020860182610d63565b506040830151610fc06040860182610fde565b506060830151610fd36060860182610e5c565b508091505092915050565b610fe7816111af565b82525050565b6000610ff882610ee4565b9150819050919050565b6000602082019050818103600083015261101c8184610d72565b905092915050565b6000602082019050818103600083015261103e8184610de7565b905092915050565b6000602082019050818103600083015261105f81610ea4565b9050919050565b6000604051905081810181811067ffffffffffffffff8211171561108d5761108c61125c565b5b8060405250919050565b600067ffffffffffffffff8211156110b2576110b161125c565b5b601f19601f8301169050602081019050919050565b6000819050602082019050919050565b6000819050602082019050919050565b600081519050919050565b600081519050919050565b600081519050919050565b6000602082019050919050565b6000602082019050919050565b600082825260208201905092915050565b600082825260208201905092915050565b600081905092915050565b600082825260208201905092915050565b600082825260208201905092915050565b600061117c8261118f565b9050919050565b60008115159050919050565b600073ffffffffffffffffffffffffffffffffffffffff82169050919050565b6000819050919050565b82818337600083830152505050565b60005b838110156111e65780820151818401526020810190506111cb565b838111156111f5576000848401525b50505050565b6000600282049050600182168061121357607f821691505b602082108114156112275761122661122d565b5b50919050565b7f4e487b7100000000000000000000000000000000000000000000000000000000600052602260045260246000fd5b7f4e487b7100000000000000000000000000000000000000000000000000000000600052604160045260246000fd5b6000601f19601f8301169050919050565b6112a5816111af565b81146112b057600080fd5b5056fea2646970667358221220146f0d9f18bcb418f1c232927799b1452c6604485d12ed88784eda758620e8b064736f6c63430008000033",
  "immutableReferences": {},
  "source": "// SPDX-License-Identifier: MIT\r\npragma solidity 0.8.0;\r\n\r\n/**\r\n * The Codestreet contract does stackoverflow like working reward some eth to problem solver...\r\n */\r\ncontract Codestreet {\r\n  struct Problem {\r\n  \tstring title;\r\n  \tstring problemStatement;\r\n  \tuint price;\r\n  \taddress askerAddress;\r\n  \tbool approved;\r\n  }\r\n  \r\n  struct Solution {\r\n  \tstring solutionStatement;\r\n  \taddress solverAddress;\r\n  \tuint problemId;\r\n  \tbool approved;\r\n  }\r\n\r\n  Problem[] problems;\r\n  Solution[] solutions;\r\n\r\n  function addProblem (string memory title, string memory problemStatement) public payable {\r\n  \tProblem memory newProblem = Problem(\r\n      title,\r\n      problemStatement,\r\n      msg.value,\r\n      msg.sender,\r\n      false\r\n    );\r\n\r\n    problems.push(newProblem);\r\n  }\r\n\r\n  function addSolution (uint problemId, string memory solutionStatement) public {\r\n    Solution memory newSolution = Solution(\r\n      solutionStatement,\r\n      msg.sender,\r\n      problemId,\r\n      false\r\n    );\r\n\r\n    solutions.push(newSolution);\r\n  }\r\n\r\n  function approveSolution (uint solutionId, uint problemId) public {\r\n    Problem memory problem = problems[problemId];\r\n    Solution memory solution = solutions[solutionId];\r\n\r\n    require(msg.sender == problem.askerAddress);\r\n    require(!problem.approved);\r\n    (bool sent, ) = solution.solverAddress.call{value: problem.price}(\"\");\r\n    require(sent, \"Failed to send ether\");\r\n    \r\n    problem.approved = true;\r\n    solution.approved = true;\r\n  }\r\n\r\n  function getProblems () public view returns(Problem[] memory) {\r\n    return problems;\r\n  }\r\n\r\n  function getSolutions () public view returns(Solution[] memory) {\r\n    return solutions;\r\n  }\r\n  \r\n}\r\n",
  "sourcePath": "C:\\Users\\Siddiqui\\Desktop\\questbook-dapp\\contracts\\Codestreet.sol",
  "compiler": {
    "name": "solc",
    "version": "0.8.0+commit.c7dfd78e.Emscripten.clang"
  },
  "schemaVersion": "3.4.3",
  "updatedAt": "2021-11-23T07:26:54.999Z",
  "devdoc": {
    "kind": "dev",
    "methods": {},
    "version": 1
  },
  "userdoc": {
    "kind": "user",
    "methods": {},
    "notice": "The Codestreet contract does stackoverflow like working reward some eth to problem solver...",
    "version": 1
  }
}